{
  "contractName": "WhitneyToken",
  "abi": [
    {
      "inputs": [
        {
          "internalType": "uint256",
          "name": "totalSupply",
          "type": "uint256"
        },
        {
          "internalType": "uint8",
          "name": "decimals",
          "type": "uint8"
        },
        {
          "internalType": "string",
          "name": "name",
          "type": "string"
        },
        {
          "internalType": "string",
          "name": "symbol",
          "type": "string"
        }
      ],
      "payable": false,
      "stateMutability": "nonpayable",
      "type": "constructor"
    },
    {
      "anonymous": false,
      "inputs": [
        {
          "indexed": true,
          "internalType": "address",
          "name": "owner",
          "type": "address"
        },
        {
          "indexed": true,
          "internalType": "address",
          "name": "spender",
          "type": "address"
        },
        {
          "indexed": false,
          "internalType": "uint256",
          "name": "value",
          "type": "uint256"
        }
      ],
      "name": "Approval",
      "type": "event"
    },
    {
      "anonymous": false,
      "inputs": [
        {
          "indexed": false,
          "internalType": "bool",
          "name": "isBurned",
          "type": "bool"
        }
      ],
      "name": "Burned",
      "type": "event"
    },
    {
      "anonymous": false,
      "inputs": [
        {
          "indexed": true,
          "internalType": "address",
          "name": "sender",
          "type": "address"
        },
        {
          "indexed": true,
          "internalType": "uint256",
          "name": "transactionId",
          "type": "uint256"
        }
      ],
      "name": "Confirmation",
      "type": "event"
    },
    {
      "anonymous": false,
      "inputs": [
        {
          "indexed": true,
          "internalType": "address",
          "name": "previousOwner",
          "type": "address"
        },
        {
          "indexed": true,
          "internalType": "address",
          "name": "newOwner",
          "type": "address"
        }
      ],
      "name": "OwnershipTransferred",
      "type": "event"
    },
    {
      "anonymous": false,
      "inputs": [
        {
          "indexed": false,
          "internalType": "address",
          "name": "account",
          "type": "address"
        }
      ],
      "name": "Paused",
      "type": "event"
    },
    {
      "anonymous": false,
      "inputs": [
        {
          "indexed": true,
          "internalType": "address",
          "name": "sender",
          "type": "address"
        },
        {
          "indexed": true,
          "internalType": "uint256",
          "name": "transactionId",
          "type": "uint256"
        },
        {
          "indexed": false,
          "internalType": "uint256[]",
          "name": "codeError",
          "type": "uint256[]"
        }
      ],
      "name": "Rejection",
      "type": "event"
    },
    {
      "anonymous": false,
      "inputs": [
        {
          "indexed": true,
          "internalType": "address",
          "name": "oldAddress",
          "type": "address"
        },
        {
          "indexed": true,
          "internalType": "address",
          "name": "newAddress",
          "type": "address"
        },
        {
          "indexed": false,
          "internalType": "uint256",
          "name": "balance",
          "type": "uint256"
        }
      ],
      "name": "Remint",
      "type": "event"
    },
    {
      "anonymous": false,
      "inputs": [
        {
          "indexed": true,
          "internalType": "uint256",
          "name": "transactionId",
          "type": "uint256"
        }
      ],
      "name": "Submission",
      "type": "event"
    },
    {
      "anonymous": false,
      "inputs": [
        {
          "indexed": true,
          "internalType": "address",
          "name": "from",
          "type": "address"
        },
        {
          "indexed": true,
          "internalType": "address",
          "name": "to",
          "type": "address"
        },
        {
          "indexed": false,
          "internalType": "uint256",
          "name": "value",
          "type": "uint256"
        }
      ],
      "name": "Transfer",
      "type": "event"
    },
    {
      "anonymous": false,
      "inputs": [
        {
          "indexed": false,
          "internalType": "address",
          "name": "account",
          "type": "address"
        }
      ],
      "name": "Unpaused",
      "type": "event"
    },
    {
      "constant": false,
      "inputs": [],
      "name": "close",
      "outputs": [],
      "payable": false,
      "stateMutability": "nonpayable",
      "type": "function"
    },
    {
      "constant": true,
      "inputs": [],
      "name": "isOwner",
      "outputs": [
        {
          "internalType": "bool",
          "name": "",
          "type": "bool"
        }
      ],
      "payable": false,
      "stateMutability": "view",
      "type": "function"
    },
    {
      "constant": true,
      "inputs": [],
      "name": "owner",
      "outputs": [
        {
          "internalType": "address",
          "name": "",
          "type": "address"
        }
      ],
      "payable": false,
      "stateMutability": "view",
      "type": "function"
    },
    {
      "constant": false,
      "inputs": [],
      "name": "pause",
      "outputs": [],
      "payable": false,
      "stateMutability": "nonpayable",
      "type": "function"
    },
    {
      "constant": true,
      "inputs": [],
      "name": "paused",
      "outputs": [
        {
          "internalType": "bool",
          "name": "",
          "type": "bool"
        }
      ],
      "payable": false,
      "stateMutability": "view",
      "type": "function"
    },
    {
      "constant": false,
      "inputs": [],
      "name": "renounceOwnership",
      "outputs": [],
      "payable": false,
      "stateMutability": "nonpayable",
      "type": "function"
    },
    {
      "constant": false,
      "inputs": [
        {
          "internalType": "address payable",
          "name": "newOwner",
          "type": "address"
        }
      ],
      "name": "transferOwnership",
      "outputs": [],
      "payable": false,
      "stateMutability": "nonpayable",
      "type": "function"
    },
    {
      "constant": false,
      "inputs": [],
      "name": "unpause",
      "outputs": [],
      "payable": false,
      "stateMutability": "nonpayable",
      "type": "function"
    },
    {
      "constant": true,
      "inputs": [],
      "name": "totalSupply",
      "outputs": [
        {
          "internalType": "uint256",
          "name": "",
          "type": "uint256"
        }
      ],
      "payable": false,
      "stateMutability": "view",
      "type": "function"
    },
    {
      "constant": true,
      "inputs": [],
      "name": "decimals",
      "outputs": [
        {
          "internalType": "uint8",
          "name": "",
          "type": "uint8"
        }
      ],
      "payable": false,
      "stateMutability": "view",
      "type": "function"
    },
    {
      "constant": true,
      "inputs": [],
      "name": "name",
      "outputs": [
        {
          "internalType": "string",
          "name": "",
          "type": "string"
        }
      ],
      "payable": false,
      "stateMutability": "view",
      "type": "function"
    },
    {
      "constant": true,
      "inputs": [],
      "name": "symbol",
      "outputs": [
        {
          "internalType": "string",
          "name": "",
          "type": "string"
        }
      ],
      "payable": false,
      "stateMutability": "view",
      "type": "function"
    },
    {
      "constant": true,
      "inputs": [
        {
          "internalType": "uint256",
          "name": "transactionId",
          "type": "uint256"
        }
      ],
      "name": "transactions",
      "outputs": [
        {
          "internalType": "address",
          "name": "",
          "type": "address"
        },
        {
          "internalType": "address",
          "name": "",
          "type": "address"
        },
        {
          "internalType": "uint256",
          "name": "",
          "type": "uint256"
        },
        {
          "internalType": "enum WhitneyToken.transactionState",
          "name": "",
          "type": "uint8"
        }
      ],
      "payable": false,
      "stateMutability": "view",
      "type": "function"
    },
    {
      "constant": true,
      "inputs": [
        {
          "internalType": "uint256",
          "name": "transactionId",
          "type": "uint256"
        }
      ],
      "name": "transactionFullData",
      "outputs": [
        {
          "internalType": "address",
          "name": "",
          "type": "address"
        },
        {
          "internalType": "address",
          "name": "",
          "type": "address"
        },
        {
          "internalType": "uint256",
          "name": "",
          "type": "uint256"
        },
        {
          "internalType": "enum WhitneyToken.transactionState",
          "name": "",
          "type": "uint8"
        },
        {
          "internalType": "uint256",
          "name": "",
          "type": "uint256"
        },
        {
          "internalType": "uint256",
          "name": "",
          "type": "uint256"
        },
        {
          "internalType": "uint256",
          "name": "",
          "type": "uint256"
        },
        {
          "internalType": "uint256",
          "name": "",
          "type": "uint256"
        }
      ],
      "payable": false,
      "stateMutability": "view",
      "type": "function"
    },
    {
      "constant": true,
      "inputs": [],
      "name": "totalTransactions",
      "outputs": [
        {
          "internalType": "uint256",
          "name": "",
          "type": "uint256"
        }
      ],
      "payable": false,
      "stateMutability": "view",
      "type": "function"
    },
    {
      "constant": true,
      "inputs": [
        {
          "internalType": "address",
          "name": "account",
          "type": "address"
        }
      ],
      "name": "balanceOf",
      "outputs": [
        {
          "internalType": "uint256",
          "name": "",
          "type": "uint256"
        }
      ],
      "payable": false,
      "stateMutability": "view",
      "type": "function"
    },
    {
      "constant": true,
      "inputs": [
        {
          "internalType": "address",
          "name": "account",
          "type": "address"
        }
      ],
      "name": "lockupOf",
      "outputs": [
        {
          "internalType": "uint256",
          "name": "",
          "type": "uint256"
        }
      ],
      "payable": false,
      "stateMutability": "view",
      "type": "function"
    },
    {
      "constant": false,
      "inputs": [
        {
          "internalType": "uint256",
          "name": "transactionId",
          "type": "uint256"
        }
      ],
      "name": "confirmTransaction",
      "outputs": [],
      "payable": false,
      "stateMutability": "nonpayable",
      "type": "function"
    },
    {
      "constant": false,
      "inputs": [
        {
          "internalType": "uint256",
          "name": "transactionId",
          "type": "uint256"
        },
        {
          "internalType": "uint256[]",
          "name": "codeError",
          "type": "uint256[]"
        }
      ],
      "name": "rejectTransaction",
      "outputs": [],
      "payable": false,
      "stateMutability": "nonpayable",
      "type": "function"
    },
    {
      "constant": true,
      "inputs": [
        {
          "internalType": "address",
          "name": "owner",
          "type": "address"
        },
        {
          "internalType": "address",
          "name": "spender",
          "type": "address"
        }
      ],
      "name": "allowance",
      "outputs": [
        {
          "internalType": "uint256",
          "name": "",
          "type": "uint256"
        }
      ],
      "payable": false,
      "stateMutability": "view",
      "type": "function"
    },
    {
      "constant": false,
      "inputs": [
        {
          "internalType": "address",
          "name": "spender",
          "type": "address"
        },
        {
          "internalType": "uint256",
          "name": "amount",
          "type": "uint256"
        }
      ],
      "name": "approve",
      "outputs": [
        {
          "internalType": "bool",
          "name": "",
          "type": "bool"
        }
      ],
      "payable": false,
      "stateMutability": "nonpayable",
      "type": "function"
    },
    {
      "constant": false,
      "inputs": [
        {
          "internalType": "address",
          "name": "recipient",
          "type": "address"
        },
        {
          "internalType": "uint256",
          "name": "amount",
          "type": "uint256"
        }
      ],
      "name": "transfer",
      "outputs": [
        {
          "internalType": "bool",
          "name": "",
          "type": "bool"
        }
      ],
      "payable": false,
      "stateMutability": "nonpayable",
      "type": "function"
    },
    {
      "constant": false,
      "inputs": [
        {
          "internalType": "address",
          "name": "sender",
          "type": "address"
        },
        {
          "internalType": "address",
          "name": "recipient",
          "type": "address"
        },
        {
          "internalType": "uint256",
          "name": "amount",
          "type": "uint256"
        }
      ],
      "name": "transferFrom",
      "outputs": [
        {
          "internalType": "bool",
          "name": "",
          "type": "bool"
        }
      ],
      "payable": false,
      "stateMutability": "nonpayable",
      "type": "function"
    },
    {
      "constant": false,
      "inputs": [
        {
          "internalType": "address",
          "name": "spender",
          "type": "address"
        },
        {
          "internalType": "uint256",
          "name": "addedValue",
          "type": "uint256"
        }
      ],
      "name": "increaseAllowance",
      "outputs": [
        {
          "internalType": "bool",
          "name": "",
          "type": "bool"
        }
      ],
      "payable": false,
      "stateMutability": "nonpayable",
      "type": "function"
    },
    {
      "constant": false,
      "inputs": [
        {
          "internalType": "address",
          "name": "spender",
          "type": "address"
        },
        {
          "internalType": "uint256",
          "name": "subtractedValue",
          "type": "uint256"
        }
      ],
      "name": "decreaseAllowance",
      "outputs": [
        {
          "internalType": "bool",
          "name": "",
          "type": "bool"
        }
      ],
      "payable": false,
      "stateMutability": "nonpayable",
      "type": "function"
    },
    {
      "constant": false,
      "inputs": [
        {
          "internalType": "address[]",
          "name": "_receivers",
          "type": "address[]"
        },
        {
          "internalType": "uint256[]",
          "name": "_values",
          "type": "uint256[]"
        }
      ],
      "name": "batchMint",
      "outputs": [
        {
          "internalType": "bool",
          "name": "",
          "type": "bool"
        }
      ],
      "payable": false,
      "stateMutability": "nonpayable",
      "type": "function"
    },
    {
      "constant": false,
      "inputs": [
        {
          "internalType": "address",
          "name": "_oldAddress",
          "type": "address"
        },
        {
          "internalType": "address",
          "name": "_newAddress",
          "type": "address"
        },
        {
          "internalType": "uint256",
          "name": "amount",
          "type": "uint256"
        }
      ],
      "name": "remint",
      "outputs": [
        {
          "internalType": "bool",
          "name": "",
          "type": "bool"
        }
      ],
      "payable": false,
      "stateMutability": "nonpayable",
      "type": "function"
    },
    {
      "constant": false,
      "inputs": [
        {
          "internalType": "address",
          "name": "_receiver",
          "type": "address"
        },
        {
          "internalType": "uint256",
          "name": "value",
          "type": "uint256"
        }
      ],
      "name": "mint",
      "outputs": [
        {
          "internalType": "bool",
          "name": "",
          "type": "bool"
        }
      ],
      "payable": false,
      "stateMutability": "nonpayable",
      "type": "function"
    },
    {
      "constant": false,
      "inputs": [
        {
          "internalType": "address",
          "name": "_from",
          "type": "address"
        },
        {
          "internalType": "uint256",
          "name": "value",
          "type": "uint256"
        }
      ],
      "name": "burn",
      "outputs": [
        {
          "internalType": "bool",
          "name": "",
          "type": "bool"
        }
      ],
      "payable": false,
      "stateMutability": "nonpayable",
      "type": "function"
    }
  ],
  "bytecode": "0x60806040523480156200001157600080fd5b50604051620025ee380380620025ee833981810160405260808110156200003757600080fd5b815160208301516040808501805191519395929483019291846401000000008211156200006357600080fd5b9083019060208201858111156200007957600080fd5b82516401000000008111828201881017156200009457600080fd5b82525081516020918201929091019080838360005b83811015620000c3578181015183820152602001620000a9565b50505050905090810190601f168015620000f15780820380516001836020036101000a031916815260200191505b50604052602001805160405193929190846401000000008211156200011557600080fd5b9083019060208201858111156200012b57600080fd5b82516401000000008111828201881017156200014657600080fd5b82525081516020918201929091019080838360005b83811015620001755781810151838201526020016200015b565b50505050905090810190601f168015620001a35780820380516001836020036101000a031916815260200191505b5060405250620001be9150506001600160e01b03620002aa16565b600080546001600160a01b0319166001600160a01b0383161760ff60a01b19169055620001ea620002aa565b6001600160a01b031660006001600160a01b03167f8be0079c531659141344cd1fd0a4f28419497f9722a3daafe3b4186f6b6457e060405160405180910390a35060048490558360016000620002486001600160e01b03620002aa16565b6001600160a01b03168152602080820192909252604001600020919091556005805460ff191660ff86161790558251620002899160069190850190620002af565b5080516200029f906007906020840190620002af565b505050505062000351565b335b90565b828054600181600116156101000203166002900490600052602060002090601f016020900481019282601f10620002f257805160ff191683800117855562000322565b8280016001018555821562000322579182015b828111156200032257825182559160200191906001019062000305565b506200033092915062000334565b5090565b620002ac91905b808211156200033057600081556001016200033b565b61228d80620003616000396000f3fe608060405234801561001057600080fd5b50600436106101cf5760003560e01c8063851686bd11610104578063a9059cbb116100a2578063dd62ed3e11610071578063dd62ed3e14610669578063e3832a8c14610697578063ed4696fe14610741578063f2fde38b146107bf576101cf565b8063a9059cbb146105f2578063adf9ffea1461061e578063b9a6003814610644578063c01a8c841461064c576101cf565b806395d89b41116100de57806395d89b41146105305780639ace38c2146105385780639dc29fac1461059a578063a457c2d7146105c6576101cf565b8063851686bd146104ce5780638da5cb5b146105045780638f32d59b14610528576101cf565b806340c10f1911610171578063685731071161014b578063685731071461037157806370a0823114610498578063715018a6146104be5780638456cb59146104c6576101cf565b806340c10f191461033557806343d726d6146103615780635c975abb14610369576101cf565b806323b872dd116101ad57806323b872dd146102ab578063313ce567146102e157806339509351146102ff5780633f4ba83a1461032b576101cf565b806306fdde03146101d4578063095ea7b31461025157806318160ddd14610291575b600080fd5b6101dc6107e5565b6040805160208082528351818301528351919283929083019185019080838360005b838110156102165781810151838201526020016101fe565b50505050905090810190601f1680156102435780820380516001836020036101000a031916815260200191505b509250505060405180910390f35b61027d6004803603604081101561026757600080fd5b506001600160a01b03813516906020013561087b565b604080519115158252519081900360200190f35b610299610899565b60408051918252519081900360200190f35b61027d600480360360608110156102c157600080fd5b506001600160a01b0381358116916020810135909116906040013561089f565b6102e961092d565b6040805160ff9092168252519081900360200190f35b61027d6004803603604081101561031557600080fd5b506001600160a01b038135169060200135610936565b61033361098a565b005b61027d6004803603604081101561034b57600080fd5b506001600160a01b038135169060200135610a79565b610333610b1e565b61027d610baf565b61027d6004803603604081101561038757600080fd5b8101906020810181356401000000008111156103a257600080fd5b8201836020820111156103b457600080fd5b803590602001918460208302840111640100000000831117156103d657600080fd5b919080806020026020016040519081016040528093929190818152602001838360200280828437600092019190915250929594936020810193503591505064010000000081111561042657600080fd5b82018360208201111561043857600080fd5b8035906020019184602083028401116401000000008311171561045a57600080fd5b919080806020026020016040519081016040528093929190818152602001838360200280828437600092019190915250929550610bbf945050505050565b610299600480360360208110156104ae57600080fd5b50356001600160a01b0316610d2c565b610333610d47565b610333610dd8565b61027d600480360360608110156104e457600080fd5b506001600160a01b03813581169160208101359091169060400135610ead565b61050c61110b565b604080516001600160a01b039092168252519081900360200190f35b61027d61111a565b6101dc61113e565b6105556004803603602081101561054e57600080fd5b503561119f565b604080516001600160a01b038087168252851660208201529081018390526060810182600281111561058357fe5b60ff16815260200194505050505060405180910390f35b61027d600480360360408110156105b057600080fd5b506001600160a01b0381351690602001356111d9565b61027d600480360360408110156105dc57600080fd5b506001600160a01b03813516906020013561127e565b61027d6004803603604081101561060857600080fd5b506001600160a01b0381351690602001356112ec565b6102996004803603602081101561063457600080fd5b50356001600160a01b0316611358565b610299611373565b6103336004803603602081101561066257600080fd5b5035611379565b6102996004803603604081101561067f57600080fd5b506001600160a01b0381358116916020013516611506565b610333600480360360408110156106ad57600080fd5b813591908101906040810160208201356401000000008111156106cf57600080fd5b8201836020820111156106e157600080fd5b8035906020019184602083028401116401000000008311171561070357600080fd5b919080806020026020016040519081016040528093929190818152602001838360200280828437600092019190915250929550611531945050505050565b61075e6004803603602081101561075757600080fd5b5035611712565b604080516001600160a01b03808b168252891660208201529081018790526060810186600281111561078c57fe5b60ff1681526020018581526020018481526020018381526020018281526020019850505050505050505060405180910390f35b610333600480360360208110156107d557600080fd5b50356001600160a01b031661177d565b60068054604080516020601f60026000196101006001881615020190951694909404938401819004810282018101909252828152606093909290918301828280156108715780601f1061084657610100808354040283529160200191610871565b820191906000526020600020905b81548152906001019060200180831161085457829003601f168201915b5050505050905090565b600061088f6108886117d0565b84846117d4565b5060015b92915050565b60045490565b60006108ac8484846118c0565b50610923846108b96117d0565b61091e856040518060600160405280602881526020016120af602891396001600160a01b038a166000908152600360205260408120906108f76117d0565b6001600160a01b03168152602081019190915260400160002054919063ffffffff6118e416565b6117d4565b5060019392505050565b60055460ff1690565b600061088f6109436117d0565b8461091e85600360006109546117d0565b6001600160a01b03908116825260208083019390935260409182016000908120918c16815292529020549063ffffffff61197b16565b61099261111a565b6109d1576040805162461bcd60e51b815260206004820181905260248201526000805160206120d7833981519152604482015290519081900360640190fd5b600054600160a01b900460ff16610a26576040805162461bcd60e51b815260206004820152601460248201527314185d5cd8589b194e881b9bdd081c185d5cd95960621b604482015290519081900360640190fd5b6000805460ff60a01b191690557f5db9ee0a495bf2e6ff9c91a7834c1ba4fdd244a5e8aa4e537bd38aeae4b073aa610a5c6117d0565b604080516001600160a01b039092168252519081900360200190a1565b6000610a8361111a565b610ac2576040805162461bcd60e51b815260206004820181905260248201526000805160206120d7833981519152604482015290519081900360640190fd5b600054600160a01b900460ff1615610b14576040805162461bcd60e51b815260206004820152601060248201526f14185d5cd8589b194e881c185d5cd95960821b604482015290519081900360640190fd5b61088f83836119d5565b610b2661111a565b610b65576040805162461bcd60e51b815260206004820181905260248201526000805160206120d7833981519152604482015290519081900360640190fd5b604080516001815290517f3e14ef105eb32b350224323469ed29ea44dcabdb22c2b9573c520f6436a65f6c9181900360200190a1610ba1610dd8565b6000546001600160a01b0316ff5b600054600160a01b900460ff1690565b6000610bc961111a565b610c08576040805162461bcd60e51b815260206004820181905260248201526000805160206120d7833981519152604482015290519081900360640190fd5b600054600160a01b900460ff1615610c5a576040805162461bcd60e51b815260206004820152601060248201526f14185d5cd8589b194e881c185d5cd95960821b604482015290519081900360640190fd5b82518251808214610c9c5760405162461bcd60e51b815260040180806020018281038252603081526020018061205c6030913960400191505060405180910390fd5b6101f4821115610cdd5760405162461bcd60e51b815260040180806020018281038252602381526020018061208c6023913960400191505060405180910390fd5b60005b82811015610d2057610d18868281518110610cf757fe5b6020026020010151868381518110610d0b57fe5b60200260200101516119d5565b600101610ce0565b50600195945050505050565b6001600160a01b031660009081526001602052604090205490565b610d4f61111a565b610d8e576040805162461bcd60e51b815260206004820181905260248201526000805160206120d7833981519152604482015290519081900360640190fd5b600080546040516001600160a01b03909116907f8be0079c531659141344cd1fd0a4f28419497f9722a3daafe3b4186f6b6457e0908390a3600080546001600160a01b0319169055565b610de061111a565b610e1f576040805162461bcd60e51b815260206004820181905260248201526000805160206120d7833981519152604482015290519081900360640190fd5b600054600160a01b900460ff1615610e71576040805162461bcd60e51b815260206004820152601060248201526f14185d5cd8589b194e881c185d5cd95960821b604482015290519081900360640190fd5b6000805460ff60a01b1916600160a01b1790557f62e78cea01bee320cd4e420270b5ea74000d11b0c9f74754ebdbfc544b05a258610a5c6117d0565b6000610eb761111a565b610ef6576040805162461bcd60e51b815260206004820181905260248201526000805160206120d7833981519152604482015290519081900360640190fd5b600054600160a01b900460ff1615610f48576040805162461bcd60e51b815260206004820152601060248201526f14185d5cd8589b194e881c185d5cd95960821b604482015290519081900360640190fd5b6001600160a01b038416610f8d5760405162461bcd60e51b81526004018080602001828103825260288152602001806120f76028913960400191505060405180910390fd5b6001600160a01b038316610fd25760405162461bcd60e51b81526004018080602001828103825260268152602001806121446026913960400191505060405180910390fd5b6001600160a01b0384166000908152600260209081526040808320546001909252909120546110069163ffffffff61197b16565b50600060026000866001600160a01b03166001600160a01b0316815260200190815260200160002081905550611075826040518060600160405280602681526020016121b3602691396001600160a01b038716600090815260016020526040902054919063ffffffff6118e416565b6001600160a01b0380861660009081526001602052604080822093909355908516815220546110aa908363ffffffff61197b16565b6001600160a01b0380851660008181526001602090815260409182902094909455805186815290519193928816927f4a18d70c2f1e4424feccf12e6f83aed7da24fe1558df371f6b2d2e128683673a92918290030190a35060019392505050565b6000546001600160a01b031690565b600080546001600160a01b031661112f6117d0565b6001600160a01b031614905090565b60078054604080516020601f60026000196101006001881615020190951694909404938401819004810282018101909252828152606093909290918301828280156108715780601f1061084657610100808354040283529160200191610871565b60009081526008602052604090208054600182015460028301546003909301546001600160a01b039283169492909116929160ff90911690565b60006111e361111a565b611222576040805162461bcd60e51b815260206004820181905260248201526000805160206120d7833981519152604482015290519081900360640190fd5b600054600160a01b900460ff1615611274576040805162461bcd60e51b815260206004820152601060248201526f14185d5cd8589b194e881c185d5cd95960821b604482015290519081900360640190fd5b61088f8383611ac7565b600061088f61128b6117d0565b8461091e8560405180606001604052806025815260200161220c60259139600360006112b56117d0565b6001600160a01b03908116825260208083019390935260409182016000908120918d1681529252902054919063ffffffff6118e416565b60008054600160a01b900460ff161561133f576040805162461bcd60e51b815260206004820152601060248201526f14185d5cd8589b194e881c185d5cd95960821b604482015290519081900360640190fd5b61135161134a6117d0565b84846118c0565b9392505050565b6001600160a01b031660009081526002602052604090205490565b60095490565b600054600160a01b900460ff16156113cb576040805162461bcd60e51b815260206004820152601060248201526f14185d5cd8589b194e881c185d5cd95960821b604482015290519081900360640190fd5b6113d361111a565b611412576040805162461bcd60e51b815260206004820181905260248201526000805160206120d7833981519152604482015290519081900360640190fd5b60008181526008602052604090206001015481906001600160a01b031661146a5760405162461bcd60e51b81526004018080602001828103825260288152602001806122316028913960400191505060405180910390fd5b816000808281526008602052604090206003015460ff16600281111561148c57fe5b146114c85760405162461bcd60e51b81526004018080602001828103825260338152602001806121d96033913960400191505060405180910390fd5b6114d3836001611ba2565b50604051839033907f4a504a94899432a9846e1aa406dceb1bcfd538bb839071d49d1e5e23f5be30ef90600090a3505050565b6001600160a01b03918216600090815260036020908152604080832093909416825291909152205490565b600054600160a01b900460ff1615611583576040805162461bcd60e51b815260206004820152601060248201526f14185d5cd8589b194e881c185d5cd95960821b604482015290519081900360640190fd5b61158b61111a565b6115ca576040805162461bcd60e51b815260206004820181905260248201526000805160206120d7833981519152604482015290519081900360640190fd5b60008281526008602052604090206001015482906001600160a01b03166116225760405162461bcd60e51b81526004018080602001828103825260288152602001806122316028913960400191505060405180910390fd5b826000808281526008602052604090206003015460ff16600281111561164457fe5b146116805760405162461bcd60e51b81526004018080602001828103825260338152602001806121d96033913960400191505060405180910390fd5b61168b846002611ba2565b5083336001600160a01b03167fc87f05e7e0923ca47694008e4760b8656a89ef4496d300cce90775f4d4787043856040518080602001828103825283818151815260200191508051906020019060200280838360005b838110156116f95781810151838201526020016116e1565b505050509050019250505060405180910390a350505050565b600090815260086020908152604080832080546001808301546002808501546003909501546001600160a01b03948516808a52938852868920549490921680895286892054848a529190975285882054878952959097205491979596939560ff909116949293929190565b61178561111a565b6117c4576040805162461bcd60e51b815260206004820181905260248201526000805160206120d7833981519152604482015290519081900360640190fd5b6117cd81611c76565b50565b3390565b6001600160a01b0383166118195760405162461bcd60e51b815260040180806020018281038252602481526020018061216a6024913960400191505060405180910390fd5b6001600160a01b03821661185e5760405162461bcd60e51b81526004018080602001828103825260228152602001806120146022913960400191505060405180910390fd5b6001600160a01b03808416600081815260036020908152604080832094871680845294825291829020859055815185815291517f8c5be1e5ebec7d5bd14f71427d1e84f3dd0314c0f7b2291e5b200ac8c7c3b9259281900390910190a3505050565b60006118cd843084611d16565b506118d9848484611e7b565b506001949350505050565b600081848411156119735760405162461bcd60e51b81526004018080602001828103825283818151815260200191508051906020019080838360005b83811015611938578181015183820152602001611920565b50505050905090810190601f1680156119655780820380516001836020036101000a031916815260200191505b509250505060405180910390fd5b505050900390565b600082820183811015611351576040805162461bcd60e51b815260206004820152601b60248201527f536166654d6174683a206164646974696f6e206f766572666c6f770000000000604482015290519081900360640190fd5b6001600160a01b038216611a30576040805162461bcd60e51b815260206004820152601f60248201527f45524332303a206d696e7420746f20746865207a65726f206164647265737300604482015290519081900360640190fd5b600454611a43908263ffffffff61197b16565b6004556001600160a01b038216600090815260016020526040902054611a6f908263ffffffff61197b16565b6001600160a01b03831660008181526001602090815260408083209490945583518581529351929391927fddf252ad1be2c89b69c2b068fc378daa952ba7f163c4a11628f55a4df523b3ef9281900390910190a35050565b6001600160a01b038216611b0c5760405162461bcd60e51b815260040180806020018281038252602581526020018061218e6025913960400191505060405180910390fd5b600454611b1f908263ffffffff611f8816565b6004556001600160a01b038216600090815260016020526040902054611b4b908263ffffffff611f8816565b6001600160a01b0383166000818152600160209081526040808320949094558351858152935191937fddf252ad1be2c89b69c2b068fc378daa952ba7f163c4a11628f55a4df523b3ef929081900390910190a35050565b600082815260086020526040812060038101805484919060ff19166001836002811115611bcb57fe5b021790555060028082015482546001600160a01b03166000908152602092909252604090912054611c019163ffffffff611f8816565b81546001600160a01b03166000908152600260205260409020556001836002811115611c2957fe5b1415611c585760018101546002820154611c509130916001600160a01b0390911690611d16565b915050610893565b80546002820154611c509130916001600160a01b0390911690611d16565b6001600160a01b038116611cbb5760405162461bcd60e51b8152600401808060200182810382526026815260200180611fee6026913960400191505060405180910390fd5b600080546040516001600160a01b03808516939216917f8be0079c531659141344cd1fd0a4f28419497f9722a3daafe3b4186f6b6457e091a3600080546001600160a01b0319166001600160a01b0392909216919091179055565b60006001600160a01b038416611d5d5760405162461bcd60e51b815260040180806020018281038252602581526020018061211f6025913960400191505060405180910390fd5b6001600160a01b038316611da25760405162461bcd60e51b8152600401808060200182810382526023815260200180611fcb6023913960400191505060405180910390fd5b611de582604051806060016040528060268152602001612036602691396001600160a01b038716600090815260016020526040902054919063ffffffff6118e416565b6001600160a01b038086166000908152600160205260408082209390935590851681522054611e1a908363ffffffff61197b16565b6001600160a01b0380851660008181526001602090815260409182902094909455805186815290519193928816927fddf252ad1be2c89b69c2b068fc378daa952ba7f163c4a11628f55a4df523b3ef92918290030190a35060019392505050565b6001600160a01b038316600090815260026020526040812054611ea4908363ffffffff61197b16565b6001600160a01b0385811660008181526002602081815260408084209690965560095486516080810188529485528986168583019081528588018a815260608701868152838752600890945297909420855181549088166001600160a01b031991821617825594516001808301805492909916919096161790965595518583015551600385018054969750939590939260ff19909116918490811115611f4657fe5b0217905550506009805460010190555060405181907fc0ba8fe4b176c1714197d43b9cc6bcf797a4a7461c5fe8d0ef6e184ae7601e5190600090a29392505050565b600061135183836040518060400160405280601e81526020017f536166654d6174683a207375627472616374696f6e206f766572666c6f7700008152506118e456fe45524332303a207472616e7366657220746f20746865207a65726f20616464726573734f776e61626c653a206e6577206f776e657220697320746865207a65726f206164647265737345524332303a20617070726f766520746f20746865207a65726f206164647265737345524332303a207472616e7366657220616d6f756e7420657863656564732062616c616e63654e756d626572206f662072656365697665727320646f65736e206d61746368206e756d626572206f662076616c75657343616e6e6f74206d696e74206261746368657320626967676572207468616e2035303045524332303a207472616e7366657220616d6f756e74206578636565647320616c6c6f77616e63654f776e61626c653a2063616c6c6572206973206e6f7420746865206f776e6572576869746e65793a2072656d696e7420746f6b656e732066726f6d207a65726f206164647265737345524332303a207472616e736665722066726f6d20746865207a65726f2061646472657373576869746e65793a2072656d696e7420746f6b656e7320746f207a65726f206164647265737345524332303a20617070726f76652066726f6d20746865207a65726f206164647265737345524332303a206275726e7320746f6b656e732066726f6d207a65726f2061646472657373576869746e65793a2052656d696e7420616d6f756e7420657863656564732062616c616e6365576869746e6579546f6b656e3a205472616e73616374696f6e2068617320616c7265616479206265656e20657865637574656445524332303a2064656372656173656420616c6c6f77616e63652062656c6f77207a65726f576869746e6579546f6b656e3a205472616e73616374696f6e20646f6573206e6f74206578697374a265627a7a72315820e89f7eb1764470a818f5d3fa37722df2ff54aec96d7bddbf136fcf09d149c86564736f6c634300050c0032",
  "source": "pragma solidity ^0.5.0;\n\nimport \"./IERC20.sol\";\nimport \"./Ownable.sol\";\nimport \"./SafeMath.sol\";\n\n/**\n * @title Whitney token\n * @dev ERC20 compatible token which requires an external oracle to explicitally\n * aprove transactions for them to be executed.\n *\n * Useful to have an external agency to verify the legal validity of transactions\n */\ncontract WhitneyToken is IERC20, Ownable {\n\n    /**\n     * @dev Initializes the contract setting the deployer as the initial owner.\n     */\n    constructor (uint256 totalSupply, uint8 decimals,\n        string memory name, string memory symbol)\n        public Ownable(_msgSender())\n    {\n        _totalSupply = totalSupply;\n        _balances[_msgSender()] = totalSupply;\n        _decimals = decimals;\n        _name = name;\n        _symbol = symbol;\n    }\n\n    /**\n     * @dev Emitted when the owner confirms a transaction and it's successfully state\n     */\n    event Confirmation(address indexed sender, uint indexed transactionId);\n    /**\n     * @dev Emitted when the owner denies a transaction and the funds are sent back to the user\n     */\n    event Rejection(address indexed sender, uint indexed transactionId, uint[] codeError);\n    /**\n     * @dev Emitted when the token owner submits a transaction for approval\n     */\n    event Submission(uint indexed transactionId);\n\n    event Remint(address indexed oldAddress, address indexed newAddress, uint256 balance);\n\n    using SafeMath for uint256;\n\n    mapping (address => uint256) internal _balances;\n\n    mapping (address => uint256) internal _lockups;\n\n    mapping (address => mapping (address => uint256)) internal _allowances;\n\n    uint256 internal _totalSupply;\n\n    uint8 internal _decimals;\n\n    string internal _name;\n\n    string internal _symbol;\n\n    mapping (uint256 => Transaction) internal _transactions;\n\n    uint256 internal _transactionCount;\n\n    enum transactionState { Submited, Confirmed, Rejected }\n\n    /**\n     * @dev See {IERC20-totalSupply}.\n     */\n    function totalSupply() public view returns (uint256) {\n        return _totalSupply;\n    }\n\n    /**\n     * @dev Optional value for standarization with most wallets.\n     */\n    function decimals() public view returns (uint8) {\n        return _decimals;\n    }\n\n    /**\n     * @dev Optional value for standarization with most wallets.\n     */\n    function name() public view returns (string memory) {\n        return _name;\n    }\n\n    /**\n     * @dev Optional value for standarization with most wallets.\n     */\n    function symbol() public view returns (string memory) {\n        return _symbol;\n    }\n\n    /**\n     * @dev function to query for specific transactions.\n     */\n    function transactions(uint transactionId) public view returns (address, address, uint, transactionState) {\n        address sender = _transactions[transactionId].sender;\n        address recipient = _transactions[transactionId].recipient;\n        return (sender, recipient, _transactions[transactionId].value, _transactions[transactionId].state);\n    }\n\n    /**\n     * @dev function to query for specific transactions.\n     */\n    function transactionFullData(uint transactionId) public view returns (\n        address, address, uint, transactionState, uint256, uint256, uint256, uint256\n        ) {\n        address sender = _transactions[transactionId].sender;\n        address recipient = _transactions[transactionId].recipient;\n        return (sender, recipient, _transactions[transactionId].value,\n        _transactions[transactionId].state, _balances[sender], _balances[recipient],\n        _lockups[sender], _lockups[recipient]);\n    }\n\n    /**\n     * @dev function to query for specific transactions.\n     */\n    function totalTransactions() public view returns (uint) {\n        return _transactionCount;\n    }\n\n    /**\n     * @dev See {IERC20-balanceOf}.\n     */\n    function balanceOf(address account) public view returns (uint256) {\n        return _balances[account];\n    }\n\n    /**\n     * @dev See {IERC20-balanceOf}.\n     */\n    function lockupOf(address account) public view returns (uint256) {\n        return _lockups[account];\n    }\n\n    /**\n     * @dev Data structure which represents a whitney transaction, the state is defined\n     * as an enum: { Submited, Confirmed, Rejected }\n     */\n    struct Transaction {\n        address sender;\n        address recipient;\n        uint value;\n        transactionState state;\n    }\n\n\n    /**\n     * @dev Allows the `owner` of confirm a specific transaction.\n     *\n     * This function will confirm and execute the original transaction\n     *\n     * Emits a {Confirmation} event.\n     *\n     * Requirements:\n     *\n     * Only the contract owner can execute, contract must not be paused,\n     * transaction must exists, transaction must be non-executed\n     *\n     */\n    function confirmTransaction(uint transactionId)\n        public\n        whenNotPaused\n        onlyOwner\n        transactionExists(transactionId)\n        notProcessed(transactionId)\n    {\n        _processTransaction(transactionId, transactionState.Confirmed);\n        emit Confirmation(msg.sender, transactionId);\n    }\n\n    /**\n     * @dev Allows the `owner` of deny a specific transaction.\n     *\n     * This function will confirm and execute the original transaction\n     *\n     * Emits a {Rejection} event.\n     *\n     * Requirements:\n     *\n     * Only the contract owner can execute, contract must not be paused,\n     * transaction must exists, transaction must be non-executed\n     *\n     */\n    function rejectTransaction(uint transactionId, uint[] memory codeError)\n        public\n        whenNotPaused\n        onlyOwner\n        transactionExists(transactionId)\n        notProcessed(transactionId)\n    {\n        _processTransaction(transactionId, transactionState.Rejected);\n        emit Rejection(msg.sender, transactionId, codeError);\n    }\n\n    /**\n     * @dev See {IERC20-allowance}.\n     */\n    function allowance(address owner, address spender) public view returns (uint256) {\n        return _allowances[owner][spender];\n    }\n\n    /**\n     * @dev See {IERC20-approve}.\n     *\n     * Requirements:\n     *\n     * - `spender` cannot be the zero address.\n     */\n    function approve(address spender, uint256 amount) public returns (bool) {\n        _approve(_msgSender(), spender, amount);\n        return true;\n    }\n\n    /**\n     * @dev See {IERC20-transfer}.\n     *\n     * Requirements:\n     *\n     * - `recipient` cannot be the zero address.\n     * - the caller must have a balance of at least `amount`.\n     */\n    function transfer(address recipient, uint256 amount) public whenNotPaused returns (bool) {\n        return _whitneyTransfer(_msgSender(), recipient, amount);\n    }\n\n    /**\n     * @dev See {IERC20-transferFrom}.\n     *\n     * Emits an {Approval} event indicating the updated allowance. This is not\n     * required by the EIP. See the note at the beginning of {ERC20};\n     *\n     * Requirements:\n     * - `sender` and `recipient` cannot be the zero address.\n     * - `sender` must have a balance of at least `amount`.\n     * - the caller must have allowance for `sender`'s tokens of at least\n     * `amount`.\n     */\n    function transferFrom(address sender, address recipient, uint256 amount) public returns (bool) {\n        _whitneyTransfer(sender, recipient, amount);\n        _approve(sender, _msgSender(), _allowances[sender][_msgSender()].sub(amount,\n            \"ERC20: transfer amount exceeds allowance\"));\n        return true;\n    }\n\n    /**\n     * @dev Atomically increases the allowance granted to `spender` by the caller.\n     *\n     * This is an alternative to {approve} that can be used as a mitigation for\n     * problems described in {IERC20-approve}.\n     *\n     * Emits an {Approval} event indicating the updated allowance.\n     *\n     * Requirements:\n     *\n     * - `spender` cannot be the zero address.\n     */\n    function increaseAllowance(address spender, uint256 addedValue) public returns (bool) {\n        _approve(_msgSender(), spender, _allowances[_msgSender()][spender].add(addedValue));\n        return true;\n    }\n\n    /**\n     * @dev Atomically decreases the allowance granted to `spender` by the caller.\n     *\n     * This is an alternative to {approve} that can be used as a mitigation for\n     * problems described in {IERC20-approve}.\n     *\n     * Emits an {Approval} event indicating the updated allowance.\n     *\n     * Requirements:\n     *\n     * - `spender` cannot be the zero address.\n     * - `spender` must have allowance for the caller of at least\n     * `subtractedValue`.\n     */\n    function decreaseAllowance(address spender, uint256 subtractedValue) public returns (bool) {\n        _approve(_msgSender(), spender, _allowances[_msgSender()][spender].sub(subtractedValue,\n            \"ERC20: decreased allowance below zero\"));\n        return true;\n    }\n\n    /** @dev Creates a maximum of 10tx minting an `amount` of tokens and assigns them to `accounts`, increasing\n     * the total supply.\n     *\n     * Emits a {Transfer} event with `from` set to the zero address for each receiver.\n     *\n     * Requirements\n     *\n     * - `to` cannot be the zero address.\n     */\n    function batchMint(address[] memory _receivers, uint256[] memory _values) public onlyOwner whenNotPaused returns (bool) {\n    uint nReceivers = _receivers.length;\n    uint nValues = _values.length;\n    require(nReceivers == nValues, \"Number of receivers doesn match number of values\");\n    require(nReceivers <= 500, \"Cannot mint batches bigger than 500\");\n\n    for (uint i = 0; i < nReceivers; i++) {\n        _mint(_receivers[i], _values[i]);\n    }\n    return true;\n  }\n    /** @dev Burns all the tokens from an ccount and mints the same amount of token\n     *       to another account\n     *\n     * Emits a {BurnMint} event with the old address, the new addres and the amount burned & minted.\n     *\n     * Requirements\n     *\n     * - None of the addresses can be the zero address.\n     */\n    function remint(address _oldAddress, address _newAddress, uint256 amount) public onlyOwner whenNotPaused returns (bool) {\n        require(_oldAddress != address(0), \"Whitney: remint tokens from zero address\");\n        require(_newAddress != address(0), \"Whitney: remint tokens to zero address\");\n        _balances[_oldAddress].add(_lockups[_oldAddress]);\n        _lockups[_oldAddress] = 0;\n        _balances[_oldAddress] = _balances[_oldAddress].sub(amount, \"Whitney: Remint amount exceeds balance\");\n        _balances[_newAddress] = _balances[_newAddress].add(amount);\n        emit Remint(_oldAddress, _newAddress, amount);\n        return true;\n    }\n\n    /** @dev Mints `amount` tokens and assigns them to `account`\n     *\n     * Emits a {Transfer} event with `from` set to the zero address.\n     *\n     * Requirements\n     *\n     * - `to` cannot be the zero address.\n     */\n    function mint(address _receiver, uint256 value) public onlyOwner whenNotPaused returns (bool) {\n        _mint(_receiver, value);\n        return true;\n    }\n\n    /** @dev Burns `amount` tokens`\n     *\n     * Emits a {Transfer} event with `to` set to the zero address.\n     *\n     * Requirements\n     *\n     * - `from` cannot be the zero address.\n     */\n    function burn(address _from, uint256 value) public onlyOwner whenNotPaused returns (bool) {\n        _burn(_from, value);\n        return true;\n    }\n\n    /**\n     * @dev Allows a token holder to submit a transaction for aproval.\n     *\n     * This function will put the assets on escrow until the transaction is\n     * aproved or denied by the owner\n     *\n     * Emits an {Submission} event.\n     *\n     * Requirements:\n     *\n     * - `sender` cannot be the zero address.\n     * - `recipient` cannot be the zero address.\n     * - `sender` must have a balance of at least `amount`.\n     *\n     */\n    function _whitneyTransfer(address sender, address recipient, uint256 amount) internal returns (bool) {\n        _transfer(sender, address(this), amount);\n        _addTransaction(sender, recipient, amount);\n        return true;\n    }\n\n    /** @dev Creates `amount` tokens and assigns them to `account`, increasing\n     * the total supply.\n     *\n     * Emits a {Transfer} event with `from` set to the zero address.\n     *\n     * Requirements\n     *\n     * - `to` cannot be the zero address.\n     */\n    function _burn(address account, uint256 amount) internal {\n        require(account != address(0), \"ERC20: burns tokens from zero address\");\n\n        _totalSupply = _totalSupply.sub(amount);\n        _balances[account] = _balances[account].sub(amount);\n        emit Transfer(account, address(0), amount);\n    }\n\n    /** @dev Creates `amount` tokens and assigns them to `account`, increasing\n     * the total supply.\n     *\n     * Emits a {Transfer} event with `from` set to the zero address.\n     *\n     * Requirements\n     *\n     * - `to` cannot be the zero address.\n     */\n    function _mint(address account, uint256 amount) internal {\n        require(account != address(0), \"ERC20: mint to the zero address\");\n\n        _totalSupply = _totalSupply.add(amount);\n        _balances[account] = _balances[account].add(amount);\n        emit Transfer(address(0), account, amount);\n    }\n\n    /**\n     * @dev Performs a token transfer\n     *\n     * This function will put the assets on escrow until the transaction is\n     * aproved or denied by the owner\n     *\n     * Emits an {Transfer} event.\n     *\n     * Requirements:\n     *\n     * - `sender` cannot be the zero address.\n     * - `recipient` cannot be the zero address.\n     * - `sender` must have a balance of at least `amount`.\n     *\n     */\n    function _transfer(address sender, address recipient, uint256 amount) internal returns (bool) {\n        require(sender != address(0), \"ERC20: transfer from the zero address\");\n        require(recipient != address(0), \"ERC20: transfer to the zero address\");\n\n        _balances[sender] = _balances[sender].sub(amount, \"ERC20: transfer amount exceeds balance\");\n        _balances[recipient] = _balances[recipient].add(amount);\n        emit Transfer(sender, recipient, amount);\n        return true;\n    }\n\n    /**\n     * @dev Sets `amount` as the allowance of `spender` over the `owner`s tokens.\n     *\n     * This is internal function is equivalent to `approve`, and can be used to\n     * e.g. set automatic allowances for certain subsystems, etc.\n     *\n     * Emits an {Approval} event.\n     *\n     * Requirements:\n     *\n     * - `owner` cannot be the zero address.\n     * - `spender` cannot be the zero address.\n     */\n    function _approve(address owner, address spender, uint256 amount) internal {\n        require(owner != address(0), \"ERC20: approve from the zero address\");\n        require(spender != address(0), \"ERC20: approve to the zero address\");\n\n        _allowances[owner][spender] = amount;\n        emit Approval(owner, spender, amount);\n    }\n\n    /**\n     * @dev Processes a Whitney transfer liberating the escrowed assets.\n     *\n     * This is internal function processes a transaction submited by the user\n     * sets the transaction as processed with it's correct state and sends\n     * the escrowed assets back to the user if denied or to the defined\n     * sender if confirmed\n     *\n     */\n    function _processTransaction (uint transactionId, transactionState state) internal returns (bool){\n        Transaction storage transaction = _transactions[transactionId];\n        transaction.state = state;\n        _lockups[transaction.sender] = _lockups[transaction.sender].sub(transaction.value);\n        if (state==transactionState.Confirmed){\n            return _transfer(address(this), transaction.recipient, transaction.value);\n        }else{\n            return _transfer(address(this), transaction.sender, transaction.value);\n        }\n    }\n\n    /**\n     * @dev Adds a transaction to the Whitney transaction data structure.\n     *\n     * Creates a transaction, assigns an ID, adds it to the\n     * data structure, and updates the total transactions counter\n     *\n     */\n    function _addTransaction(address origin, address destination, uint value) internal\n    returns (uint transactionId)\n    {\n        _lockups[origin] = _lockups[origin].add(value);\n        transactionId = _transactionCount;\n        _transactions[transactionId] = Transaction({\n            sender: origin,\n            recipient: destination,\n            value: value,\n            state: transactionState.Submited\n        });\n        _transactionCount += 1;\n        emit Submission(transactionId);\n    }\n\n    /**\n     * @dev Throws if transaction doesn't exist\n     */\n    modifier transactionExists(uint transactionId) {\n        require(_transactions[transactionId].recipient != address(0),\n            \"WhitneyToken: Transaction does not exist\");\n        _;\n    }\n\n    /**\n     * @dev Throws if the transaction has already been processed.\n     */\n    modifier notProcessed(uint transactionId) {\n        require(_transactions[transactionId].state == transactionState.Submited,\n            \"WhitneyToken: Transaction has already been executed\");\n        _;\n    }\n}",
  "sourcePath": "/home/maquina2/Documents/whitney-ethereum-token/contracts/WhitneyToken.sol",
  "compiler": {
    "name": "solc",
    "version": "0.5.12+commit.7709ece9.Emscripten.clang"
  },
  "schemaVersion": "3.0.19",
  "updatedAt": "2020-02-24T13:06:31.698Z",
  "networkType": "ethereum",
  "devdoc": {
    "details": "ERC20 compatible token which requires an external oracle to explicitally aprove transactions for them to be executed. * Useful to have an external agency to verify the legal validity of transactions",
    "methods": {
      "allowance(address,address)": {
        "details": "See {IERC20-allowance}."
      },
      "approve(address,uint256)": {
        "details": "See {IERC20-approve}.     * Requirements:     * - `spender` cannot be the zero address."
      },
      "balanceOf(address)": {
        "details": "See {IERC20-balanceOf}."
      },
      "batchMint(address[],uint256[])": {
        "details": "Creates a maximum of 10tx minting an `amount` of tokens and assigns them to `accounts`, increasing the total supply.     * Emits a {Transfer} event with `from` set to the zero address for each receiver.     * Requirements     * - `to` cannot be the zero address."
      },
      "burn(address,uint256)": {
        "details": "Burns `amount` tokens`     * Emits a {Transfer} event with `to` set to the zero address.     * Requirements     * - `from` cannot be the zero address."
      },
      "close()": {
        "details": "Called by the owner to destroy the smart contract from the state. NOTE: Deleting the smart contract from the state will destroy all it's information Information will still be recoverable by full nodes, but this is not recommended Maybe we should add a rollback period for this"
      },
      "confirmTransaction(uint256)": {
        "details": "Allows the `owner` of confirm a specific transaction.     * This function will confirm and execute the original transaction     * Emits a {Confirmation} event.     * Requirements:     * Only the contract owner can execute, contract must not be paused, transaction must exists, transaction must be non-executed     "
      },
      "constructor": {
        "details": "Initializes the contract setting the deployer as the initial owner."
      },
      "decimals()": {
        "details": "Optional value for standarization with most wallets."
      },
      "decreaseAllowance(address,uint256)": {
        "details": "Atomically decreases the allowance granted to `spender` by the caller.     * This is an alternative to {approve} that can be used as a mitigation for problems described in {IERC20-approve}.     * Emits an {Approval} event indicating the updated allowance.     * Requirements:     * - `spender` cannot be the zero address. - `spender` must have allowance for the caller of at least `subtractedValue`."
      },
      "increaseAllowance(address,uint256)": {
        "details": "Atomically increases the allowance granted to `spender` by the caller.     * This is an alternative to {approve} that can be used as a mitigation for problems described in {IERC20-approve}.     * Emits an {Approval} event indicating the updated allowance.     * Requirements:     * - `spender` cannot be the zero address."
      },
      "isOwner()": {
        "details": "Returns true if the caller is the current owner."
      },
      "lockupOf(address)": {
        "details": "See {IERC20-balanceOf}."
      },
      "mint(address,uint256)": {
        "details": "Mints `amount` tokens and assigns them to `account`     * Emits a {Transfer} event with `from` set to the zero address.     * Requirements     * - `to` cannot be the zero address."
      },
      "name()": {
        "details": "Optional value for standarization with most wallets."
      },
      "owner()": {
        "details": "Returns the address of the current owner."
      },
      "pause()": {
        "details": "Called by the owner to pause, triggers stopped state."
      },
      "paused()": {
        "details": "Returns true if the contract is paused, and false otherwise."
      },
      "rejectTransaction(uint256,uint256[])": {
        "details": "Allows the `owner` of deny a specific transaction.     * This function will confirm and execute the original transaction     * Emits a {Rejection} event.     * Requirements:     * Only the contract owner can execute, contract must not be paused, transaction must exists, transaction must be non-executed     "
      },
      "remint(address,address,uint256)": {
        "details": "Burns all the tokens from an ccount and mints the same amount of token      to another account     * Emits a {BurnMint} event with the old address, the new addres and the amount burned & minted.     * Requirements     * - None of the addresses can be the zero address."
      },
      "renounceOwnership()": {
        "details": "Leaves the contract without owner. It will not be possible to call `onlyOwner` functions anymore. Can only be called by the current owner.     * NOTE: Renouncing ownership will leave the contract without an owner, thereby removing any functionality that is only available to the owner. Maybe we should delete this or ad a rollback period"
      },
      "symbol()": {
        "details": "Optional value for standarization with most wallets."
      },
      "totalSupply()": {
        "details": "See {IERC20-totalSupply}."
      },
      "totalTransactions()": {
        "details": "function to query for specific transactions."
      },
      "transactionFullData(uint256)": {
        "details": "function to query for specific transactions."
      },
      "transactions(uint256)": {
        "details": "function to query for specific transactions."
      },
      "transfer(address,uint256)": {
        "details": "See {IERC20-transfer}.     * Requirements:     * - `recipient` cannot be the zero address. - the caller must have a balance of at least `amount`."
      },
      "transferFrom(address,address,uint256)": {
        "details": "See {IERC20-transferFrom}.     * Emits an {Approval} event indicating the updated allowance. This is not required by the EIP. See the note at the beginning of {ERC20};     * Requirements: - `sender` and `recipient` cannot be the zero address. - `sender` must have a balance of at least `amount`. - the caller must have allowance for `sender`'s tokens of at least `amount`."
      },
      "transferOwnership(address)": {
        "details": "Transfers ownership of the contract to a new account (`newOwner`). Can only be called by the current owner."
      },
      "unpause()": {
        "details": "Called by the owner to unpause, returns to normal state."
      }
    },
    "title": "Whitney token"
  },
  "userdoc": {
    "methods": {}
  }
}